{
  "_format": "hh-sol-artifact-1",
  "contractName": "Posther",
  "sourceName": "contracts/Posther.sol",
  "abi": [
    {
      "inputs": [
        {
          "internalType": "uint256",
          "name": "_fee",
          "type": "uint256"
        }
      ],
      "stateMutability": "nonpayable",
      "type": "constructor"
    },
    {
      "anonymous": false,
      "inputs": [
        {
          "indexed": true,
          "internalType": "address",
          "name": "previousOwner",
          "type": "address"
        },
        {
          "indexed": true,
          "internalType": "address",
          "name": "newOwner",
          "type": "address"
        }
      ],
      "name": "OwnershipTransferred",
      "type": "event"
    },
    {
      "inputs": [],
      "name": "fee",
      "outputs": [
        {
          "internalType": "uint256",
          "name": "",
          "type": "uint256"
        }
      ],
      "stateMutability": "view",
      "type": "function"
    },
    {
      "inputs": [
        {
          "internalType": "address",
          "name": "_address",
          "type": "address"
        }
      ],
      "name": "isServiceAccount",
      "outputs": [
        {
          "internalType": "bool",
          "name": "",
          "type": "bool"
        }
      ],
      "stateMutability": "view",
      "type": "function"
    },
    {
      "inputs": [],
      "name": "kill",
      "outputs": [],
      "stateMutability": "nonpayable",
      "type": "function"
    },
    {
      "inputs": [],
      "name": "owner",
      "outputs": [
        {
          "internalType": "address",
          "name": "",
          "type": "address"
        }
      ],
      "stateMutability": "view",
      "type": "function"
    },
    {
      "inputs": [
        {
          "internalType": "string",
          "name": "text",
          "type": "string"
        }
      ],
      "name": "post",
      "outputs": [],
      "stateMutability": "payable",
      "type": "function"
    },
    {
      "inputs": [],
      "name": "releaseFunds",
      "outputs": [],
      "stateMutability": "nonpayable",
      "type": "function"
    },
    {
      "inputs": [],
      "name": "renounceOwnership",
      "outputs": [],
      "stateMutability": "nonpayable",
      "type": "function"
    },
    {
      "inputs": [
        {
          "internalType": "uint256",
          "name": "_value",
          "type": "uint256"
        }
      ],
      "name": "setFee",
      "outputs": [],
      "stateMutability": "nonpayable",
      "type": "function"
    },
    {
      "inputs": [
        {
          "internalType": "address payable",
          "name": "_address",
          "type": "address"
        }
      ],
      "name": "setFeeReceiver",
      "outputs": [],
      "stateMutability": "nonpayable",
      "type": "function"
    },
    {
      "inputs": [
        {
          "internalType": "address",
          "name": "_address",
          "type": "address"
        },
        {
          "internalType": "bool",
          "name": "_value",
          "type": "bool"
        }
      ],
      "name": "setServiceAccount",
      "outputs": [],
      "stateMutability": "nonpayable",
      "type": "function"
    },
    {
      "inputs": [
        {
          "internalType": "address",
          "name": "newOwner",
          "type": "address"
        }
      ],
      "name": "transferOwnership",
      "outputs": [],
      "stateMutability": "nonpayable",
      "type": "function"
    },
    {
      "inputs": [],
      "name": "viewerUrl",
      "outputs": [
        {
          "internalType": "string",
          "name": "",
          "type": "string"
        }
      ],
      "stateMutability": "view",
      "type": "function"
    }
  ],
  "bytecode": "0x60806040523480156200001157600080fd5b50604051620016ea380380620016ea8339818101604052810190620000379190620002f8565b620000576200004b6200008060201b60201c565b6200008860201b60201c565b62000068816200014c60201b60201c565b6200007933620001e560201b60201c565b50620003cb565b600033905090565b60008060009054906101000a900473ffffffffffffffffffffffffffffffffffffffff169050816000806101000a81548173ffffffffffffffffffffffffffffffffffffffff021916908373ffffffffffffffffffffffffffffffffffffffff1602179055508173ffffffffffffffffffffffffffffffffffffffff168173ffffffffffffffffffffffffffffffffffffffff167f8be0079c531659141344cd1fd0a4f28419497f9722a3daafe3b4186f6b6457e060405160405180910390a35050565b6200015c6200008060201b60201c565b73ffffffffffffffffffffffffffffffffffffffff1662000182620002b860201b60201c565b73ffffffffffffffffffffffffffffffffffffffff1614620001db576040517f08c379a0000000000000000000000000000000000000000000000000000000008152600401620001d2906200034b565b60405180910390fd5b8060048190555050565b620001f56200008060201b60201c565b73ffffffffffffffffffffffffffffffffffffffff166200021b620002b860201b60201c565b73ffffffffffffffffffffffffffffffffffffffff161462000274576040517f08c379a00000000000000000000000000000000000000000000000000000000081526004016200026b906200034b565b60405180910390fd5b80600360006101000a81548173ffffffffffffffffffffffffffffffffffffffff021916908373ffffffffffffffffffffffffffffffffffffffff16021790555050565b60008060009054906101000a900473ffffffffffffffffffffffffffffffffffffffff16905090565b600081519050620002f281620003b1565b92915050565b6000602082840312156200030b57600080fd5b60006200031b84828501620002e1565b91505092915050565b6000620003336020836200036d565b9150620003408262000388565b602082019050919050565b60006020820190508181036000830152620003668162000324565b9050919050565b600082825260208201905092915050565b6000819050919050565b7f4f776e61626c653a2063616c6c6572206973206e6f7420746865206f776e6572600082015250565b620003bc816200037e565b8114620003c857600080fd5b50565b61130f80620003db6000396000f3fe6080604052600436106100a75760003560e01c80638da5cb5b116100645780638da5cb5b1461016e5780638ee93cf314610199578063aaad98ab146101b5578063ddca3f43146101f2578063efdcd9741461021d578063f2fde38b14610246576100a7565b806309d2d0b9146100ac57806341c0e1b5146100d557806361ad7e0e146100ec57806369d895751461011757806369fe0e2d1461012e578063715018a614610157575b600080fd5b3480156100b857600080fd5b506100d360048036038101906100ce9190610c70565b61026f565b005b3480156100e157600080fd5b506100ea610346565b005b3480156100f857600080fd5b5061010161045d565b60405161010e9190610e84565b60405180910390f35b34801561012357600080fd5b5061012c6104eb565b005b34801561013a57600080fd5b5061015560048036038101906101509190610ced565b6105ea565b005b34801561016357600080fd5b5061016c610670565b005b34801561017a57600080fd5b506101836106f8565b6040516101909190610e4e565b60405180910390f35b6101b360048036038101906101ae9190610cac565b610721565b005b3480156101c157600080fd5b506101dc60048036038101906101d79190610c1e565b61073e565b6040516101e99190610e69565b60405180910390f35b3480156101fe57600080fd5b50610207610794565b6040516102149190610f66565b60405180910390f35b34801561022957600080fd5b50610244600480360381019061023f9190610c47565b61079a565b005b34801561025257600080fd5b5061026d60048036038101906102689190610c1e565b61085a565b005b610277610952565b73ffffffffffffffffffffffffffffffffffffffff166102956106f8565b73ffffffffffffffffffffffffffffffffffffffff16146102eb576040517f08c379a00000000000000000000000000000000000000000000000000000000081526004016102e290610f26565b60405180910390fd5b80600160008473ffffffffffffffffffffffffffffffffffffffff1673ffffffffffffffffffffffffffffffffffffffff16815260200190815260200160002060006101000a81548160ff0219169083151502179055505050565b61034e610952565b73ffffffffffffffffffffffffffffffffffffffff1661036c6106f8565b73ffffffffffffffffffffffffffffffffffffffff16146103c2576040517f08c379a00000000000000000000000000000000000000000000000000000000081526004016103b990610f26565b60405180910390fd5b60004711801561040457503373ffffffffffffffffffffffffffffffffffffffff166108fc479081150290604051600060405180830381858888f19350505050155b15610444576040517f08c379a000000000000000000000000000000000000000000000000000000000815260040161043b90610ea6565b60405180910390fd5b3373ffffffffffffffffffffffffffffffffffffffff16ff5b6002805461046a9061108f565b80601f01602080910402602001604051908101604052809291908181526020018280546104969061108f565b80156104e35780601f106104b8576101008083540402835291602001916104e3565b820191906000526020600020905b8154815290600101906020018083116104c657829003601f168201915b505050505081565b6104f3610952565b73ffffffffffffffffffffffffffffffffffffffff166105116106f8565b73ffffffffffffffffffffffffffffffffffffffff1614610567576040517f08c379a000000000000000000000000000000000000000000000000000000000815260040161055e90610f26565b60405180910390fd5b60006105716106f8565b90508073ffffffffffffffffffffffffffffffffffffffff166108fc479081150290604051600060405180830381858888f193505050506105e7576040517f08c379a00000000000000000000000000000000000000000000000000000000081526004016105de90610f46565b60405180910390fd5b50565b6105f2610952565b73ffffffffffffffffffffffffffffffffffffffff166106106106f8565b73ffffffffffffffffffffffffffffffffffffffff1614610666576040517f08c379a000000000000000000000000000000000000000000000000000000000815260040161065d90610f26565b60405180910390fd5b8060048190555050565b610678610952565b73ffffffffffffffffffffffffffffffffffffffff166106966106f8565b73ffffffffffffffffffffffffffffffffffffffff16146106ec576040517f08c379a00000000000000000000000000000000000000000000000000000000081526004016106e390610f26565b60405180910390fd5b6106f6600061095a565b565b60008060009054906101000a900473ffffffffffffffffffffffffffffffffffffffff16905090565b60405180602001604052806000815250905061073b610a1e565b50565b6000600160008373ffffffffffffffffffffffffffffffffffffffff1673ffffffffffffffffffffffffffffffffffffffff16815260200190815260200160002060009054906101000a900460ff169050919050565b60045481565b6107a2610952565b73ffffffffffffffffffffffffffffffffffffffff166107c06106f8565b73ffffffffffffffffffffffffffffffffffffffff1614610816576040517f08c379a000000000000000000000000000000000000000000000000000000000815260040161080d90610f26565b60405180910390fd5b80600360006101000a81548173ffffffffffffffffffffffffffffffffffffffff021916908373ffffffffffffffffffffffffffffffffffffffff16021790555050565b610862610952565b73ffffffffffffffffffffffffffffffffffffffff166108806106f8565b73ffffffffffffffffffffffffffffffffffffffff16146108d6576040517f08c379a00000000000000000000000000000000000000000000000000000000081526004016108cd90610f26565b60405180910390fd5b600073ffffffffffffffffffffffffffffffffffffffff168173ffffffffffffffffffffffffffffffffffffffff161415610946576040517f08c379a000000000000000000000000000000000000000000000000000000000815260040161093d90610ec6565b60405180910390fd5b61094f8161095a565b50565b600033905090565b60008060009054906101000a900473ffffffffffffffffffffffffffffffffffffffff169050816000806101000a81548173ffffffffffffffffffffffffffffffffffffffff021916908373ffffffffffffffffffffffffffffffffffffffff1602179055508173ffffffffffffffffffffffffffffffffffffffff168173ffffffffffffffffffffffffffffffffffffffff167f8be0079c531659141344cd1fd0a4f28419497f9722a3daafe3b4186f6b6457e060405160405180910390a35050565b600160003373ffffffffffffffffffffffffffffffffffffffff1673ffffffffffffffffffffffffffffffffffffffff16815260200190815260200160002060009054906101000a900460ff1680610a7857506000600454145b15610a8257610b60565b600454341015610ac7576040517f08c379a0000000000000000000000000000000000000000000000000000000008152600401610abe90610f06565b60405180910390fd5b600360009054906101000a900473ffffffffffffffffffffffffffffffffffffffff1673ffffffffffffffffffffffffffffffffffffffff166108fc6004549081150290604051600060405180830381858888f19350505050610b5f576040517f08c379a0000000000000000000000000000000000000000000000000000000008152600401610b5690610ee6565b60405180910390fd5b5b565b6000610b75610b7084610fa6565b610f81565b905082815260208101848484011115610b8d57600080fd5b610b9884828561104d565b509392505050565b600081359050610baf8161127d565b92915050565b600081359050610bc481611294565b92915050565b600081359050610bd9816112ab565b92915050565b600082601f830112610bf057600080fd5b8135610c00848260208601610b62565b91505092915050565b600081359050610c18816112c2565b92915050565b600060208284031215610c3057600080fd5b6000610c3e84828501610ba0565b91505092915050565b600060208284031215610c5957600080fd5b6000610c6784828501610bb5565b91505092915050565b60008060408385031215610c8357600080fd5b6000610c9185828601610ba0565b9250506020610ca285828601610bca565b9150509250929050565b600060208284031215610cbe57600080fd5b600082013567ffffffffffffffff811115610cd857600080fd5b610ce484828501610bdf565b91505092915050565b600060208284031215610cff57600080fd5b6000610d0d84828501610c09565b91505092915050565b610d1f81610ff3565b82525050565b610d2e81611017565b82525050565b6000610d3f82610fd7565b610d498185610fe2565b9350610d5981856020860161105c565b610d6281611150565b840191505092915050565b6000610d7a601883610fe2565b9150610d8582611161565b602082019050919050565b6000610d9d602683610fe2565b9150610da88261118a565b604082019050919050565b6000610dc0601e83610fe2565b9150610dcb826111d9565b602082019050919050565b6000610de3601983610fe2565b9150610dee82611202565b602082019050919050565b6000610e06602083610fe2565b9150610e118261122b565b602082019050919050565b6000610e29601b83610fe2565b9150610e3482611254565b602082019050919050565b610e4881611043565b82525050565b6000602082019050610e636000830184610d16565b92915050565b6000602082019050610e7e6000830184610d25565b92915050565b60006020820190508181036000830152610e9e8184610d34565b905092915050565b60006020820190508181036000830152610ebf81610d6d565b9050919050565b60006020820190508181036000830152610edf81610d90565b9050919050565b60006020820190508181036000830152610eff81610db3565b9050919050565b60006020820190508181036000830152610f1f81610dd6565b9050919050565b60006020820190508181036000830152610f3f81610df9565b9050919050565b60006020820190508181036000830152610f5f81610e1c565b9050919050565b6000602082019050610f7b6000830184610e3f565b92915050565b6000610f8b610f9c565b9050610f9782826110c1565b919050565b6000604051905090565b600067ffffffffffffffff821115610fc157610fc0611121565b5b610fca82611150565b9050602081019050919050565b600081519050919050565b600082825260208201905092915050565b6000610ffe82611023565b9050919050565b600061101082611023565b9050919050565b60008115159050919050565b600073ffffffffffffffffffffffffffffffffffffffff82169050919050565b6000819050919050565b82818337600083830152505050565b60005b8381101561107a57808201518184015260208101905061105f565b83811115611089576000848401525b50505050565b600060028204905060018216806110a757607f821691505b602082108114156110bb576110ba6110f2565b5b50919050565b6110ca82611150565b810181811067ffffffffffffffff821117156110e9576110e8611121565b5b80604052505050565b7f4e487b7100000000000000000000000000000000000000000000000000000000600052602260045260246000fd5b7f4e487b7100000000000000000000000000000000000000000000000000000000600052604160045260246000fd5b6000601f19601f8301169050919050565b7f636f756c64206e6f74207472616e736665722066756e64730000000000000000600082015250565b7f4f776e61626c653a206e6577206f776e657220697320746865207a65726f206160008201527f6464726573730000000000000000000000000000000000000000000000000000602082015250565b7f436f756c64206e6f742073656e642066656520746f2072656365697665720000600082015250565b7f46656520697320686967686572207468616e20616d6f756e7400000000000000600082015250565b7f4f776e61626c653a2063616c6c6572206973206e6f7420746865206f776e6572600082015250565b7f46756e647320636f756c64206e6f742062652072656c65617365640000000000600082015250565b61128681610ff3565b811461129157600080fd5b50565b61129d81611005565b81146112a857600080fd5b50565b6112b481611017565b81146112bf57600080fd5b50565b6112cb81611043565b81146112d657600080fd5b5056fea2646970667358221220b33d1895aa33f5cd2f15b5103870be3309d8b832e00e1c326b0021abe3499ff664736f6c63430008040033",
  "linkReferences": {},
  "deployedLinkReferences": {}
}